:100000000C9404070C944B070C944B070C944B076F
:100010000C944B070C944B070C944B070C944B0718
:100020000C944B070C944B070C941F2E0C94F22E3F
:100030000C9435240C944B070C944B070C944B07F1
:100040000C944B070C944B070C944B070C944B07E8
:100050000C944B070C94A9240C944B070C944B075D
:100060000C944B070C944B070C944B070C944B07C8
:100070000C944B070C944B070C944B070C944B07B8
:100080000C944B070C944B070C944B070C944B07A8
:100090000C944B070C944B070C944B070C944B0798
:1000A0000C944B070C944B070C944B0735001E0027
:1000B0001F0020002100220023002400250026002C
:1000C00027002D002E002A00290014001A00080025
:1000D000150017001C0018000C00120013002F0060
:1000E000300031002B0004001600070009000A0050
:1000F0000B000D000E000F00330034002800280014
:10010000E100E1001D001B000600190005001100C0
:100110001000360037003800C25CC35C0151E000BB
:10012000E200E30000002C002C002C002C004C000E
:100130005000510052004F0044454255473A206458
:10014000697361626C65642E0A0044454255473A02
:1001500020656E61626C65642E0A000A00253031EC
:100160003662003A200025303258000A722F632090
:1001700030313233343536373839414243444546DD
:100180000A007267626C696768742074696D6572D1
:100190002064697361626C652E0A007267626C6923
:1001A0006768742074696D657220656E61626C6544
:1001B000642E0A007267626C6967687420736574E4
:1001C00020687376205B4E4F454550524F4D5D3A47
:1001D0002025752C25752C25750A007267626C69BF
:1001E0006768742073657420687376205B4545509A
:1001F000524F4D5D3A2025752C25752C25750A002A
:100200007267626C69676874207261696E626F7789
:1002100020736574206873763A2025642C25642C3D
:1002200025642C25750A007267626C696768742002
:1002300064697361626C65205B454550524F4D5D4A
:100240003A207267626C696768745F636F6E666993
:10025000672E656E61626C65203D2025750A00720F
:1002600067626C6967687420656E61626C65205BAB
:10027000454550524F4D5D3A207267626C69676820
:10028000745F636F6E6669672E656E61626C652070
:100290003D2025750A007267626C69676874207476
:1002A0006F67676C65205B454550524F4D5D3A2046
:1002B0007267626C696768745F636F6E6669672EE8
:1002C000656E61626C65203D2025750A007267626B
:1002D0006C69676874206D6F6465205B4E4F45459F
:1002E00050524F4D5D3A2025750A007267626C6965
:1002F000676874206D6F6465205B454550524F4DB3
:100300005D3A2025750A007267626C696768745FE0
:10031000696E6974207267626C696768745F636F85
:100320006E6669672E6D6F6465203D20302E205704
:10033000726974652064656661756C742076616CA1
:1003400075657320746F20454550524F4D2E0A003D
:100350007267626C696768745F696E69742065654D
:10036000636F6E666967206973206E6F7420656EB7
:1003700061626C65642E0A007267626C69676874FA
:100380005F696E6974207374617274210A00726708
:10039000626C696768745F696E69742063616C6C14
:1003A00065642E0A007267626C696768745F636FC8
:1003B0006E6669672E7370656564203D2025640A4A
:1003C000007267626C696768745F636F6E66696705
:1003D0002E76616C203D2025640A007267626C698C
:1003E0006768745F636F6E6669672E736174203D22
:1003F0002025640A007267626C696768745F636FC6
:100400006E6669672E687565203D2025640A007256
:1004100067686C696768745F636F6E6669672E6D85
:100420006F6465203D2025640A007267626C69670D
:1004300068745F636F6E6669672E656E61626C6576
:10044000203D2025640A007267626C696768745FEA
:10045000636F6E66696720454550524F4D3A0A00FA
:1004600000047F3F1F643214643214783C1E1E1453
:100470000A052223252628292A2C2D2F3032333510
:1004800036383A3B3D3E4042434547494A4C4E5040
:1004900051535557595A5C5E6062646668696B6D6A
:1004A0006F71737577797B7D7F81838587898A8C6E
:1004B0008E90929496989A9C9E9FA1A3A5A7A8AA75
:1004C000ACAEAFB1B3B4B6B8B9BBBCBEBFC1C2C3AA
:1004D000C5C6C7C9CACBCCCDCED0D1D2D2D3D4D544
:1004E000D6D7D7D8D9D9DADADBDBDBDCDCDCDCDC6D
:1004F000DDDDDDDDDCDCDCDCDCDBDBDBDADAD9D945
:10050000D8D7D7D6D5D4D3D2D2D1D0CECDCCCBCAD2
:10051000C9C7C6C5C3C2C1BFBEBCBBB9B8B6B4B3F8
:10052000B1AFAEACAAA8A7A5A3A19F9E9C9A98968E
:100530009492908E8C8A89878583817F7D7B797761
:100540007573716F6D6B6968666462605E5C5A5941
:1005500057555351504E4C4A4947454342403E3D02
:100560003B3A3836353332302F2D2C2A2928262590
:100570002322FFAA7F554000010101010101010171
:100580000102020202020202020203030303030346
:100590000303040404040404040505050505060614
:1005A00006060607070707070808080809090909D2
:1005B0000A0A0A0B0B0B0C0C0C0D0D0D0E0E0E0F78
:1005C0000F0F101011111112121313141415151608
:1005D000161717181819191A1A1B1B1C1D1D1E1E79
:1005E0001F202021222223242425262627282929CA
:1005F0002A2B2C2D2D2E2F303132323334353637F5
:1006000038393A3B3C3D3E3F4041424344454647F2
:1006100048494A4C4D4E4F50515354555658595ACB
:100620005B5D5E5F616264656668696B6C6D6F706F
:1006300072737577787A7B7D7E8082838587888ADE
:100640008C8E8F91939596989A9C9EA0A2A3A5A715
:10065000A9ABADAFB1B3B5B7BABCBEC0C2C4C6C911
:10066000CBCDCFD1D4D6D8DBDDDFE2E4E7E9EBEECA
:10067000F0F3F5F8FAFDFF0A002530325820006B40
:100680006579626F6172645F7265706F72743A202F
:10069000000A0025303258006B6579626F61726420
:1006A0005F7365745F6C65643A200064656C5F6BB2
:1006B00065795F6269743A2063616E2774206465AE
:1006C0006C3A20253032580A006164645F6B6579AA
:1006D0005F6269743A2063616E2774206164643AD2
:1006E00020253032580A00646F6E652E0A00626F52
:1006F0006F746D61676963207363616E3A202E2E9B
:100700002E20003F00433E20004C25640A007469FF
:100710006D65725F72656164333228293A20253035
:10072000346C580A006B65796D61705F636F6E663B
:1007300069672E6E6B726F3A2025580A006B6579D7
:10074000626F6172645F69646C653A2025580A00C3
:100750006B6579626F6172645F70726F746F636FE3
:100760006C3A2025580A00686F73745F6B65796274
:100770006F6172645F6C65647328293A2025580A9A
:10078000000A092D20537461747573202D0A0047E7
:1007900043433A20372E332E30204156522D4C49B8
:1007A00042433A20322E302E30204156525F415281
:1007B00043483A20617672350A004F5054494F4EF3
:1007C000533A204C55464120424F4F544D414749E2
:1007D0004320434F4E534F4C4520434F4D4D414EC8
:1007E00044204E4B524F20343039360A004255498E
:1007F0004C443A2022302E372E3130362D36352DCE
:100800006764326536613422202831323A31303A19
:100810003332204D61722020362032303230290AA6
:10082000005649443A20307846454544284E6F45A5
:100830007965734A75737446756E29205049443A38
:10084000203078363036312843696E646572626CC8
:100850006F636B29205645523A2030783030303162
:100860000A00444553433A203730252045717561CD
:100870006C20537461676765726564204B657962AB
:100880006F6172640A000A092D2056657273696FE0
:100890006E202D0A000A092D20436F6E736F6C6560
:1008A000202D0A4553432F713A09717569740A0066
:1008B0000A092D204D61676963202D0A443A0944D5
:1008C00065627567204D65737361676520546F6756
:1008D000676C650A583A094D6174726978204465FD
:1008E000627567204D6F646520546F67676C652083
:1008F0002D2053686F77206B65797072657373650F
:100900007320696E206D6174726978206772696402
:100910000A4B3A094B6579626F61726420446562E3
:10092000756720546F67676C65202D2053686F775B
:10093000206B65797072657373207265706F727465
:100940000A4D3A094465627567204D6F75736520DD
:10095000546F67676C650A563A0956657273696F1A
:100960006E0A533A095374617475730A433A094124
:100970006374697661746520436F6E736F6C652074
:100980004D6F64650A46312D4631303A0953776917
:1009900074636820746F204C6179657220302D3942
:1009A0002028463130203D204C30290A302D393A5C
:1009B0000953776974636820746F204C617965729C
:1009C00020302D390A47524156453A095377697408
:1009D000636820746F204C61796572203020286133
:1009E0006C7465726E617465290A423A094A756DC4
:1009F0007020746F20426F6F746C6F616465720A4F
:100A00004553433A094A756D7020746F20426F6FE9
:100A1000746C6F616465722028616C7465726E61BC
:100A20007465290A453A095072696E74204545502B
:100A3000524F4D2053657474696E67730A42535068
:100A40004143453A09436C65617220454550524F18
:100A50004D0A4E3A094E4B524F20546F67676C65F2
:100A60000A000A002575002E6E6B726F3A20000A8C
:100A7000002575002E737761705F6261636B736C24
:100A80006173685F6261636B73706163653A2000D4
:100A90000A002575002E737761705F677261766555
:100AA0005F6573633A20000A002575002E6E6F5F44
:100AB0006775693A20000A002575002E737761700A
:100AC0005F72616C745F726775693A20000A002575
:100AD00075002E737761705F6C616C745F6C677505
:100AE000693A20000A002575002E737761705F72E5
:100AF00063746C5F726775693A20000A002575009F
:100B00002E737761705F6C63746C5F6C6775693AA4
:100B100020000A002575002E636170736C6F636B93
:100B20005F746F5F636F6E74726F6C3A20000A00BF
:100B30002575002E737761705F636F6E74726F6CD2
:100B40005F636170736C6F636B3A20000A0025303D
:100B50003258006B65796D61705F636F6E666967AF
:100B60002E7261773A20000A002575002E6D6F7590
:100B700073653A20000A002575002E6B6579626F57
:100B80006172643A20000A002575002E6D6174724E
:100B900069783A20000A002575002E656E61626C46
:100BA000653A20000A002530325800646562756796
:100BB0005F636F6E6669672E7261773A20000A0084
:100BC00025750064656661756C745F6C617965722A
:100BD0003A20003F004E4B524F3A206F66660A00A3
:100BE0004E4B524F3A206F6E0A000A6D6F75736557
:100BF0003A206F66660A000A6D6F7573653A206F5A
:100C00006E0A000A6B6579626F6172643A206F66E2
:100C1000660A000A6B6579626F6172643A206F6ED2
:100C20000A000A6D61747269783A206F66660A007C
:100C30000A6D61747269783A206F6E0A000A646501
:100C40006275673A206F66660A000A6465627567B6
:100C50003A206F6E0A000A0A4A756D70696E672045
:100C6000746F20626F6F746C6F616465722E2E2ECC
:100C70002000433E2000436C656172696E67204529
:100C80004550524F4D0A006565636F6E6669673A5D
:100C90000A005B735D004B6579626F61726420735B
:100CA000746172742E0A005B575D005B535D005BDC
:100CB000525D005B445D005B435D00040330000057
:100CC000001803430069006E006400650072006252
:100CD000006C006F0063006B0000001C034E006F8F
:100CE0000045007900650073004A007500730074C8
:100CF00000460075006E0000000403090409025B51
:100D000000030100A0FA0904000001030101000929
:100D100021110100012240000705810308000A0992
:100D20000401000103000000092111010001223B20
:100D3000000705820320000A0904020002030000E4
:100D40000009211101000122220007058303200070
:100D50000107050303200001120110010000000833
:100D6000EDFE61600100010203010631FF0974A17B
:100D7000010975150026FF00952075088102097686
:100D8000150026FF00952075089102C0050109068F
:100D9000A1018505050719E029E71500250195083A
:100DA000750181020507190029EF1500250195F04D
:100DB0007501810205081901290595057501910242
:100DC000950175039101C005010906A101050719E7
:100DD000E029E71500250195087501810295017547
:100DE0000881010507190029FF150026FF00950657
:100DF00075088100050819012905950575019102FD
:100E0000950175039101C00011241FBECFEFDAE0F8
:100E1000DEBFCDBF04B603FE27C08091980290913B
:100E20009902A0919A02B0919B028730904BA74003
:100E3000B04BD1F4109298021092990210929A023B
:100E400010929B0214BE84B7877F84BF0FB6F894BC
:100E5000A895809160008861809360001092600086
:100E60000FBEE0E0F8E3099511E0A0E0B1E0E8E8AA
:100E7000F2E602C005900D92A436B107D9F722E040
:100E8000A4E6B1E001C01D92A839B207E1F70E94C3
:100E9000452B0C9442310C940000FF93EF93E091AA
:100EA0006401F0916501309709F00995EF91FF9188
:100EB0000895FC018591803011F0EFDFFBCF08959C
:100EC000FF27E0E230E247FF0CC0419597FF09C0E1
:100ED000EDE26095709580959095611D711D811D65
:100EE000911D27FF02C0219530E350E2AA27660F2B
:100EF000771F881F991FAA1FA41710F0A41B6395C2
:100F00005A95A9F7AA3008F0A95FA05DAF93F395B1
:100F1000611571058105910541F7ED3211F4EF93EB
:100F2000F395F21718F43F93F395FBCF8F91B5DF4C
:100F3000FA95E1F70895E991F9918591803021F0D2
:100F4000853219F0AADFF9CF089520E0E894559191
:100F50005532C1F3503311F4689455915A3348F423
:100F6000505390F3220F022E220F220F200D250F37
:100F7000F4CF0EF4219589919991533619F3533793
:100F800029F1533559F1BC0188279927E8945C363B
:100F900021F48991999168945591543639F446EF2A
:100FA0007EF077FF0DC08FEF9FEF0AC055374AE004
:100FB00039F0583540E121F0523642E009F0089509
:100FC000FF93EF937DDFEF91FF91B7CFFF93EF9307
:100FD000FC0181918030B9F360DFFBCFFF93EF9389
:100FE00068DFF1CFDF93CF93CDB7DEB72596A3DFD0
:100FF000CF91DF91089581E0089581E008950C94E8
:10100000FD071F93CF93DF9300D000D01F92CDB781
:10101000DEB749835A836B832091A00189819A812D
:1010200021111BC06623A9F00E941321182F682FDD
:1010300089819A810E94B92069817A81812F0F90DC
:101040000F900F900F900F90DF91CF911F910C9404
:10105000DB080E94E820182FEFCF0E94132169813E
:101060007A81EDCFFC01408151816281738184815D
:101070000C9401080E948422811102C00E942B233B
:101080000C948C0B0C948F0B08950C94440881E005
:1010900008950C944708CF93C82F0E9445088C2FC1
:1010A000CF910C94490808950E94C81B0E945308D0
:1010B0002FEF84E39CE0215080409040E1F700C096
:1010C00000000C94CF240F931F93CF93DF93EC0178
:1010D0000E9432088C01BE010E94FF07882319F18B
:1010E000BE01C8010E9481158823E9F0BE01C80134
:1010F0000E94C2158823B9F0BE01C8010E94541491
:10110000882389F08A81882349F101308CE518070A
:1011100081F00E3D8CE51807F1F001158CE51807FC
:10112000E9F40E94540880E0DF91CF911F910F9164
:10113000089590913302892F8E7F90FF8160809374
:10114000330280FF05C08AE491E00E945907EBCF8B
:1011500088E391E0FACF0E942B23E5CF06311C45AE
:10116000F9F40E94A8219A81992381F08A7A91E06A
:1011700009F490E090936601811106C089E20E9413
:1011800083210E94F721CFCF85E3F9CF80916601BB
:10119000811104C089E20E948A21F3CF85E3FBCF4D
:1011A000CE01DF91CF911F910F910C94FB0790E03E
:1011B00080E008950895972F70E02EE0929F600DD3
:1011C000711D1124FB0196E4899FE00DF11D11248E
:1011D000EE0FFF1FE455FF4F859194910895FC0198
:1011E000EE0FFF1FE55AFE4F859194910895CF931E
:1011F000DF930E94DB080E94AD0AEC018115904547
:1012000008F09AC0C11580E4D80708F013C1C03EA9
:10121000D10508F079C0C03CD10508F0FAC0C83A41
:10122000D10580F4C53AD10508F0E8C0C130D10538
:1012300009F476C020F0C430D10508F071C0D0E0C8
:10124000C0E06EC0CF3BD105D0F7C83AD10509F454
:101250003FC1C93AD10509F43EC1CA3AD10509F4E2
:101260003DC1CB3AD10509F43CC1CC3AD10509F4D2
:101270003BC1CB3BD10509F43AC1CC3BD10509F4C4
:1012800039C1CD3AD10509F438C1C03BD10509F4C3
:1012900037C1CE3AD10509F436C1CF3AD10509F4A8
:1012A00035C1C13BD10509F434C1C23BD10509F4B4
:1012B00033C1C33BD10509F432C1C43BD10509F4A4
:1012C00031C1C53BD10509F430C1C63BD10509F494
:1012D0002FC1C73BD10509F42EC1C83BD10509F484
:1012E0002DC1C93BD10509F42CC1CD3BD10509F471
:1012F0002BC1CE3BD10509F42AC1CA3BD10509F067
:1013000029C1CAE2D6E40CC0C11520E2D20760F4BC
:10131000C11581E0D80720F4C83ED10508F08FCF71
:10132000CE01DF91CF910895C11520E3D20708F0D7
:1013300077C0CE019F7070C0C11585E5D80760F5F4
:10134000C11524E5D20708F0A3C0C11582E5D8076E
:1013500050F4C11521E5D20708F46FC0DC2FCC276B
:10136000C16FD06ADDCF9C2F969596959E01237014
:101370003327C115D34508F07CC0C1E0D0E002C0DE
:10138000CC0FDD1F2A95E2F720E2929FC0011124C5
:10139000C82BD92BDC68C4CFC11529E5D207A8F426
:1013A000C11588E5D80708F078C0C11526E5D20731
:1013B00008F045CF8C2F0E94480BC82FD0E0DC2FBF
:1013C000CC27CC27DF71D062ABCFC1158AE5D80717
:1013D00008F468C0CE0190568115904208F02FCFD6
:1013E0008D2F8F710E94480BDD27D06290E0982FDF
:1013F000882788279F71C82BD92B92CFC53AD10552
:1014000009F460C0C63AD10509F45FC0C3E8D0E46E
:1014100087CFCE01805C91090E94EF08EC0180CF5C
:10142000CE019927D3FF03C0EC01D86C79CFEC0132
:10143000D06C76CFDF70D06A73CFCE01F4E0969592
:101440008795FA95E1F783709C2F937021E030E047
:1014500002C0220F331F9A95E2F73C68382BC695DD
:10146000C695C37080E2C89FE0011124C22BD32B24
:1014700057CFC1E0D0E002C0CC0FDD1F2A95E2F7C4
:1014800020E2929FC0011124C82BD92BDA6848CFE3
:10149000DC2FCC27C46FD06A43CFDC2FCC27C06FA2
:1014A000D06A3ECF8C2F8F700E94480B34E0D695C7
:1014B000C7953A95E1F7CF70D0E0DC2FCC27D06903
:1014C000C82B2ECFC1E8D0E42BCFC2E8D0E428CF80
:1014D000C2EED4E425CFC9EED4E422CFCAEED4E4E0
:1014E0001FCFC5EBD4E41CCFC6EBD4E419CFC3EBBC
:1014F000D4E416CFC4EBD4E413CFC7EBD4E410CFBD
:10150000CCECD4E40DCFCDECD4E40ACFC3E8D5E4E1
:1015100007CFCAE8D5E404CFC2E9D5E401CFC4E9D6
:10152000D5E4FECEC1E2D6E4FBCEC3E2D6E4F8CEEB
:10153000C4E2D6E4F5CEC5E2D6E4F2CEC6E2D6E405
:10154000EFCEC7E2D6E4ECCECFE6D4E4E9CEC0E7F6
:10155000D4E4E6CEC0E0D4E4E3CE82389105B1F124
:10156000B0F48133910509F471C048F489329105D2
:1015700009F467C08A32910509F46DC00895853376
:10158000910509F459C08933910501F10895833E0D
:101590009105A9F138F4803E9105F9F0823E91055C
:1015A00049F10895863E9105A9F1873E9105C9F15B
:1015B000843E910519F520918A0221FF1FC0809178
:1015C000890284FD14C087EE90E00895209189027D
:1015D0002370A1F080EE90E008952091890220FD13
:1015E0003FC030918A0230FF09C024FF3CC090E028
:1015F00080E008952091890222FDF7CF089520917F
:10160000890222FD33C030918A0230FDE3CF24FDF0
:10161000EECFF4CF2091890223FFF0CF24FDE7CF56
:10162000D2CF2091890223FD24C030918A0231FF5C
:10163000EECF84EE90E008952091890225FD1CC034
:1016400008952091890225FD1AC0089520918902EC
:1016500026FD18C008952091890226FD16C0089520
:1016600089E390E0089583EE90E0089582EE90E0A3
:10167000089586EE90E0089589E290E0089585E36C
:1016800090E008958AE290E0089581E390E0B6CF7B
:101690009091890292FF06C0282F28712830F9F412
:1016A000877F846093FF06C0282F28712831F1F4CA
:1016B000877E846120918A0220FF06C0382F38710E
:1016C0003830D9F4877F816021FF06C0282F287128
:1016D0002831D1F4877E816194FD877E0895282F7B
:1016E00024712430F9F68B7F8860DCCF282F247199
:1016F000243101F78B7E8861DDCF382F3171313095
:1017000019F78E7F8860E0CF282F2171213121F7D2
:101710008E7E8861E1CF08950C948B0B08950C9414
:101720008E0BEF92FF920F931F93CF93DF938BE675
:1017300091E00E945907D0E0C0E086E6E82E81E003
:10174000F82E0DE511E0DF93CF93FF92EF920E9408
:10175000F20783E691E00E9459078C2F0E94CF0B7D
:101760000E9477229F938F931F930F930E94F207FB
:101770008BE591E00E94590721968DB79EB7089698
:101780000FB6F8949EBF0FBE8DBFC530D105D9F6F8
:10179000DF91CF911F910F91FF90EF900895E82F67
:1017A000F0E0EE0FFF1FE959FE4F8081918108950F
:1017B000CF93DF93ADE1B1E04BE251E0C1E0D0E087
:1017C0008D91E82FE295EF70F0E061A18F709E019E
:1017D00001C0220F8A95EAF7922F9095962391A344
:1017E00082A1822B82A34A175B0751F7ABE2B1E0DB
:1017F00061E070E08D91E82FE295EF70F0E041A19B
:101800008F709B0101C0220F8A95EAF7922F909565
:10181000942391A382A1822B82A381E0A033B807F5
:1018200049F71092720110927101109268011092A2
:101830006701109274011092730110926A01109264
:101840006901109276011092750110926C0110924C
:101850006B01109278011092770110926E01109234
:101860006D0110927A01109279011092700110921C
:101870006F0185E00E94DD0CDF91CF910C943A0856
:101880002F923F924F925F926F927F928F929F9290
:10189000AF92BF92CF92DF92EF92FF920F931F937E
:1018A000CF93DF930DE111E090E080E0312CEE2446
:1018B000E394F12C30E3632E31E0732EE80129919B
:1018C0008E01E22FE295EF70F0E031A12F70570109
:1018D00001C0AA0C2A95EAF7232F2A2921A322A1C5
:1018E0002A2C2094222122A3D0EADA95F1F767016D
:1018F000082E02C0CC0CDD1C0A94E2F7460180944D
:101900009094A1E7B1E02BE231E0512C4D915C9134
:101910001197E90149909E01642D62956F7070E006
:10192000EB0168A170E0D42DDF7002C0759567955A
:10193000DA95E2F760FD3DC0BA016C297D29119668
:101940007C936E936D917C9111974617570711F018
:1019500055245394129662167306C1F621A1D22D16
:10196000D223D1A322A1A22AA2A2352801968E3089
:10197000910509F0A3CF232D45E067E671E081E7EB
:1019800091E00E94DE0C0E944208832DDF91CF91EE
:101990001F910F91FF90EF90DF90CF90BF90AF908D
:1019A0009F908F907F906F905F904F903F902F907F
:1019B0000895BA0168217921C2CF0895FF920F934B
:1019C0001F93CF93DF93F82E092F162FD72FC42FF5
:1019D000222349F081E080937D010E946724909347
:1019E0007C0180937B0180917D018823A1F080910F
:1019F0007B0190917C010E947F24069760F0EF2D7F
:101A0000F02FA12FBD2F90E080E0D0E08C179D0734
:101A100044F010927D01DF91CF911F910F91FF90C3
:101A20000895219131912D933D930196EFCFAF927F
:101A3000BF92CF92DF92EF92FF920F931F93CF93BB
:101A4000DF939B01E82FF0E0E958FA4F31110EC007
:101A50006491762F862FDF91CF911F910F91FF9088
:101A6000EF90DF90CF90BF90AF900895C32FD0E05C
:101A7000E491FE2FEE2EF12C46E0649FC00111246C
:101A80000FEF10E0B8010E94BF30AB01822F90E051
:101A9000880F991F25E5249FB001259F700D112403
:101AA000861B970B982F990F980FB8016C1B7D0B15
:101AB0006E9DD0016F9DB00D7E9DB00D11248B2FBA
:101AC000939F90011124232F3327B801621B730BBE
:101AD0006E9D90016F9D300D7E9D300D1124732FF2
:101AE0005801A91AB108AC9E6001AD9ED00CBC9EF5
:101AF000D00C1124CD2CDD240C191D090E9DE00104
:101B00000F9DD00D1E9DD00D112442305105B1F016
:101B100050F44115510571F04130510569F07E2FA7
:101B2000EB2F832F09C04430510579F050F0463037
:101B30005105A9F77E2FED2F6E2F8DCF7B2F8D2F87
:101B4000FBCFE32F7B2F8F2FF7CF7D2FEB2FFBCFFB
:101B50000895CF93DF93762FE901682F842F0E9499
:101B6000170D798368838A83DF91CF9108958091DF
:101B70005C02982F9E7F29F48170826080935C02C2
:101B800008958A34E8F381708864F8CF88E090E0A3
:101B90000C940231CF92DF92EF92FF926B017C01A5
:101BA0000E94B70DB701A60188E090E0FF90EF908A
:101BB000DF90CF900C942031ECE5F2E083E080835D
:101BC00011828FEF8283838314826081718182818D
:101BD00093810C94CA0D8091330280FF08C087E482
:101BE00094E09F938F930E94F2070F900F90809143
:101BF000330280FF0FC080915C0281701F928F932F
:101C00008AE294E09F938F930E94F2070F900F90C7
:101C10000F900F908091330280FF0FC080915C0283
:101C200086951F928F938FE094E09F938F930E94ED
:101C3000F2070F900F900F900F908091330280FF6A
:101C40000EC080915D021F928F9385EF93E09F936A
:101C50008F930E94F2070F900F900F900F9080913A
:101C6000330280FF0EC080915E021F928F938BED36
:101C700093E09F938F930E94F2070F900F900F9025
:101C80000F908091330280FF0EC080915F021F92FF
:101C90008F9381EC93E09F938F930E94F2070F90B4
:101CA0000F900F900F908091330280FF0EC08091B3
:101CB00060021F928F9385EA93E09F938F930E9417
:101CC000F2070F900F900F900F90089580915C0293
:101CD00080FF02C08695089580E00895809160029B
:101CE000833018F48F5F8093600260915C02709182
:101CF0005D0280915E0290915F020C94CA0D80910A
:101D00006002882319F081508093600260915C0228
:101D100070915D0280915E0290915F020C94CA0DF9
:101D20006091040170E080915C0280FF0AC08091A4
:101D3000820123E0829FC00111248F599D4F0C9492
:101D40000A15809181019091030123E0829FF001A7
:101D50001124EF59FD4F891750F71182108212821A
:101D60008F5F3396F8CF90915C0290FF14C09091F2
:101D700081012091030133E0939FF0011124EF5979
:101D8000FD4F921710F00C94900E81836083428374
:101D90009F5F3396F6CF0895CF93DF9300D01F92C5
:101DA000CDB7DEB790915C0290FF0AC09E012F5F15
:101DB0003F4F0E94A90D4B8169818A810E94B30E19
:101DC0000F900F900F90DF91CF910895CF93DF93F5
:101DD000EC01EC81F0E0EE58FB4F4491ECE5F2E0D1
:101DE000628181810E94CC0E8C818F5F8C83DF9118
:101DF000CF910895CF93DF93EC01ECE5F2E04381BE
:101E000062818C810E94CC0E8C818F5F8C83DF91EC
:101E1000CF9108950F931F93CF93DF9300D01F921C
:101E2000CDB7DEB78C0180917E0181110AC09E0181
:101E30002F5F3F4F4FEF6FEF0E94A90D8A81809374
:101E40007E01F8018481813069F038F040917E0193
:101E5000823009F040E080E003C080917E0140E0E4
:101E600060E004C060917E0140E080E00E94B30E1B
:101E7000F801848190E0019663E070E00E94D33025
:101E800084830F900F900F90DF91CF911F910F914E
:101E900008954F925F926F927F928F929F92AF922E
:101EA000BF92CF92DF92EF92FF920F931F93CF9347
:101EB000DF9300D01F92CDB7DEB7182FD62E042F98
:101EC000722E90915C0290FF46C0E92FE695AE2FEE
:101ED000B0E0A05DBE4F8C9180938A019E7F9230CE
:101EE00009F04DC09E012F5F3F4F812F0E94A90D29
:101EF0004B8169818A810E94B30E10935D02D0925A
:101F00005E0200935F02772009F49CC060915C023E
:101F100070915D0280915E0290915F020E94CA0DF5
:101F20008091330280FF17C080915F021F928F93D0
:101F300080915E021F928F9380915D021F928F931A
:101F40008BED91E09F938F930E94F2070FB6F89468
:101F5000DEBF0FBECDBF0F900F900F90DF91CF91DE
:101F60001F910F91FF90EF90DF90CF90BF90AF90B7
:101F70009F908F907F906F905F904F9008958230E8
:101F800019F400915F02B9CF863019F410915D0207
:101F9000B4CF8930D9F3893109F0AFCFE9518E2F11
:101FA0008170682E8E2F80958170C82EE695F0E0A6
:101FB000EE58FA4FE590F490412CFF2490E0A92EC2
:101FC00092E0B92E60910201461618F00E94900E20
:101FD00094CF842C912C8E9CC0018F9C900D9E9C44
:101FE000900D112470E00E94BF30512E611028C066
:101FF000560E8091330280FF11C0FF92EF921F9224
:10200000CF921F925F921F924F92BF92AF920E9407
:10201000F2070FB6F894DEBF0FBECDBF209181014D
:10202000820E911C9401220F331F280D391D2F5948
:102030003D4F402F6D2D852D0E94A90D4394C2CF99
:10204000561AD7CF8091330280FF85CF1F920F930E
:102050001F92DF921F921F9384EB91E073CFECE508
:10206000F2E09181282F4381628188E0890F0C94EE
:10207000490F81E00C942F10ECE5F2E09181282FBC
:102080004381628188EF890F0C94490F81E00C94A1
:102090003C10ECE5F2E0628121E1620F08F46FEFA1
:1020A000282F438181810C94490F81E00C944910C1
:1020B000ECE5F2E0628121E1621B08F460E0282F88
:1020C000438181810C94490F81E00C945810ECE518
:1020D000F2E0438121E1420F08F44FEF282F6281A3
:1020E00081810C94490F81E00C946710ECE5F2E0DB
:1020F000438121E1421B08F440E0282F6281818165
:102100000C94490F81E00C94761020E00C94490F58
:10211000EF92FF921F93CF93DF93EC0110E0EE2438
:10212000EA94F12C60910201161770F00E94900E53
:102130009A818C8190FF27C08F5F8C83DF91CF9134
:102140001F91FF90EF90089520918101422F410F40
:102150005527551FCA019A01220F331F280F391F17
:102160002F593D4F70E0C7010E94D330962F8C81CC
:1021700040915F0260915E02199F800D11240E94C0
:10218000A90D1F5FCFCF8150D8CFAF92BF92CF9212
:10219000DF92EF92FF920F931F93CF93DF93FC0197
:1021A000828101E080FD0FEF10E04CE0A42E8091D1
:1021B00002011817C8F00E94900E80918001013032
:1021C00009F055C0811102C08091020181508093B5
:1021D0008001DF91CF911F910F91FF90EF90DF90E1
:1021E000CF90BF90AF900895C0918101C12ED12CA6
:1021F000CC0DDD2DD11DCE01880F991FC80FD91F21
:10220000CF59DD4F198218821A8234E0E32EF12C67
:10221000B12C809180018B0D8D301CF16A2D0E94B4
:10222000B130892F082E000C990BC816D90691F4ED
:1022300080915F028E9DA0018F9D500D11245595B8
:102240004795559547959E0160915E0280915D028C
:102250000E94A90DB00EF1E0EF1AF108D1F61F5F50
:10226000A6CF87FFDFCF90910201890FDBCF90E0EF
:1022700001966091020170E00E94D330A8CF0F93C5
:102280001F93CF93DF93809181019091030123E00D
:10229000829FF0011124EF59FD4F891740F1C0E0F2
:1022A000D3E060910201C61740F10E94900E209188
:1022B000000180917F01820F80937F019091010145
:1022C000920F90930101191654F4082E000C990BEB
:1022D000409102014150550B841795071CF0219540
:1022E00020930001DF91CF911F910F9108951182EA
:1022F000108212828F5F3396D0CF0C2F10E070E0E7
:10230000C8010E94D33020918101820F482F50E0F4
:1023100020917F01022E000C330B02171307BCF033
:1023200020910101022E000C330B201731077CF0A5
:102330008D9F900111242F593D4F40915F02609174
:102340005E0280915D020E94A90DCF5FAACFFA01C3
:10235000EE0FFF1FE40FF51FEF59FD4F11821082A2
:102360001282F3CF0F931F93CF93DF938C01FC0165
:102370008481958101968170992795838483C0E03B
:10238000D5E580910201C81730F0DF91CF911F9100
:102390000F910C94900E20918101422F4C0F5527E4
:1023A000551FCA019A01220F331F280F391F2F59B9
:1023B0003D4F8C2F8695F80144815581840F952FD0
:1023C000911D817040915F0260915E028D9F802D12
:1023D00011240E94A90DCF5FD4CF0F931F93CF93E9
:1023E000DF93EC0110E000E09091020190171106DC
:1023F00009F06CF40E94900E8C8190E0019681703F
:1024000099278C83DF91CF911F910F91089520918F
:102410008101A801420F511D9A01220F331F240F81
:10242000351F2F593D4F4C8160915E0280915D02B6
:1024300096959017110651F04CF0442349F04091C5
:102440005F020E94A90D0F5F1F4FCECF4423B9F347
:1024500040E0F7CF60915C02669570E04BE050E0A1
:1024600085E091E00E94ED30892B19F481E08093A2
:102470008B010E9467249093840180938301809153
:10248000330280FF08C08BE991E09F938F930E94F5
:10249000F2070F900F90089510928B0180913302F4
:1024A00080FF08C082E891E09F938F930E94F2071B
:1024B0000F900F90089590915C0290FF54C091701E
:1024C00081113BC0926090935C026623E9F16091B8
:1024D0005C0270915D0280915E0290915F020E94A9
:1024E000CA0D8091330280FF0FC080915C028695F7
:1024F0001F928F938BEE92E09F938F930E94F2072F
:102500000F900F900F900F9060915C02669570E0B5
:102510004BE050E085E091E00E94ED30892B01F125
:102520000E944C1281E08093860140915F0260918D
:102530005E0280915D020C948510853210F09864E3
:10254000C2CF880F982BBFCF8091330280FFDCCFA2
:1025500080915C0286951F928F938DEC92E0CCCF98
:102560000E942A12DFCF0895682F90915C02969501
:1025700081E0890F853208F081E00C945B1281E0E4
:102580000C94B412682F90915C0296958FEF890F8E
:1025900009F484E20C945B1281E00C94C21261E0B5
:1025A0000C945B1280915C02816080935C0280914C
:1025B000330280FF0DC01F9281E08F938FE592E080
:1025C0009F938F930E94F2070F900F900F900F90A0
:1025D00080915C0286950C94CF1260E00C945B12A3
:1025E00080918901811160C08091330280FF08C011
:1025F0008EE893E09F938F930E94F2070F900F90C5
:102600008091330280FF08C088E793E09F938F9307
:102610000E94F2070F900F900E948422811110C037
:102620008091330280FF08C080E593E09F938F93F1
:102630000E94F2070F900F900E942B230E94DC0D46
:102640000E94C60D60935C0270935D0280935E02EF
:1026500090935F026E7FC1F48091330280FF08C0C7
:1026600087E093E09F938F930E94F2070F900F9063
:102670000E94DC0D0E94C60D60935C0270935D02A7
:1026800080935E0290935F020E94B70D0E94EB0D53
:1026900010928B0180915C0280FF03C086950E949E
:1026A000ED1281E080938901089580915C028E7F14
:1026B00080935C0260915C0270915D0280915E0289
:1026C00090915F020E94CA0D8091330280FF0FC07B
:1026D00080915C0281701F928F9387E292E09F93BA
:1026E0008F930E94F2070F900F900F900F900E940F
:1026F0004C122FEF80E792E0215080409040E1F7AC
:1027000000C000000C94900E8091330280FF10C036
:1027100080915C02809581701F928F9386E992E090
:102720009F938F930E94F2070F900F900F900F903E
:1027300080915C0280FD0C9455130C94D2120F937F
:102740001F93CF93DF9380918B01882309F48DC071
:1027500080918A01E0915C02E695E81BE093850197
:102760008230C9F5F0E0E259FB4FE491CE2FD0E082
:1027700006EE1EE080918601882389F01092860182
:102780000E9467249E0120953095820F931F90939D
:1027900084018093830110928801109287018091B7
:1027A0008301909184010E947F248C179D0708F477
:1027B0005CC0E0918301F0918401CE0FDF1FD093C4
:1027C0008401C093830183E891E0F801DF91CF9108
:1027D0001F910F910994863049F4F0E0E559FB4FC1
:1027E000E491CE2FD0E00AEF1EE0C4CF893051F43F
:1027F000E695F0E0E859FB4FE491CE2FD0E008E8F1
:1028000010E1B8CF8F3051F4E695F0E0EB59FB4F73
:10281000E491CE2FD0E005EC10E1ACCF853149F446
:10282000F0E0EE59FB4FE491CE2FD0E00FE311E141
:10283000A1CFC8EED3E002EB11E1883109F49ACFC1
:10284000833239F4E0E6F4E0C591D4910AE01FE068
:1028500091CFC4EFD1E00DEE11E1843209F48ACFBB
:10286000C0EDD7E008EA1DE085CFDF91CF911F9141
:102870000F910895FA01811101C0FB010994CF93D2
:10288000DF93C82FD62F0E94660E8C1740F00E944F
:10289000660E8D1720F4DF91CF910C94BF128C2F10
:1028A000DF91CF910C94CF120F931F93CF938C0194
:1028B000FB01C281CC2309F479C00E94A821827255
:1028C000F801E25CFC45E431F105D8F4E659FB4E31
:1028D0000C94E7307E1486148D14921497149C1473
:1028E000A114A614AB14B014B514BA14BE14C314B6
:1028F000C614C914CC14CF14D114D4140E94841358
:10290000C0E08C2FCF911F910F9108954CEC52E1B4
:102910006FEB72E10E943A14F3CF4FEB52E16CEC93
:1029200072E1F8CF46E450E169E370E1F3CF49E3A7
:1029300050E166E470E1EECF44E650E165E570E118
:10294000E9CF45E550E164E670E1E4CF42E850E1CB
:1029500063E770E1DFCF43E750E162E870E1DACF8F
:102960004FE75EE06EE67EE0D5CF4EE65EE06FE7D5
:102970007EE0D0CF81E00E94CF12C2CF65E082E03E
:102980000E943F14BDCF68E086E0FACF6EE089E098
:10299000F7CF64E18FE0F4CF67E185E1F1CF88E123
:1029A000EACF62E289E1ECCF83E2E5CFC1E0A9CFD3
:1029B0003BB1242F209523233BB1432B3FB7F89401
:1029C000FC01680F791FE617F70711F43FBF089560
:1029D000819198E04BB9000000C087FF2BB9880FA8
:1029E000000000C000C000C02BB900C09A9591F74C
:1029F000EACF2AB1242B2AB99B01220F331F620F81
:102A0000731F0E94D81487EC90E00197F1F700C083
:102A10000000089548E00C94F9140F931F93CF938E
:102A2000DF93C62FD42F022FFC0182818823C9F0A7
:102A300060938E010E94672490938D0180938C0196
:102A400080E28C0F883008F057C0C77081E001C069
:102A5000880FCA95EAF7DF91CF911F910F910C94DF
:102A6000821910918E01161335C080918C019091BE
:102A70008D010E947F24883C910560F5C0E2CD0F56
:102A80001D17B9F080E2810F883040F4177081E0A3
:102A900001C0880F1A95EAF70E948919C83028F5F5
:102AA00081E09D2F977001C0880F9A95EAF70E94E8
:102AB0008219802F0E946F19C830F0F4D77081E01E
:102AC00001C0880FDA95EAF7DF91CF911F910F913E
:102AD0000C94891980E28C0F883070F4C77081E003
:102AE00001C0880FCA95EAF7EFCF802FDF91CF9111
:102AF0001F910F910C946F19DF91CF911F910F913E
:102B000008959C01CB01233F4CE5340731F190F44B
:102B1000283DFCE53F07E9F0293D4CE5340769F124
:102B2000273D3C4579F426E241EE61EE0E940D1509
:102B300080E00895253FFCE53F07B9F090F0263F7F
:102B40003C45B9F0FC0182818823D1F010928E01BE
:102B5000089527E245EE65EEE9CF26E241EE60EE0C
:102B6000E5CF27E245EE64EEE1CF26E241EE62EEEC
:102B7000DDCF27E245EE66EED9CF28E241E0EBCF8C
:102B800081E00895CF93DF93EC01FB0182818823DC
:102B900009F41BC1C230FCE5DF07C0F1C6319CE57A
:102BA000D90730F09E012A5F3C452930310570F588
:102BB0000E94A12290938A0280938902C031ECE5A1
:102BC000DE0709F4CFC008F057C0C8308CE5D8073D
:102BD00009F4B2C088F5C430ECE5DE0709F4A2C000
:102BE000C0F4C2308CE5D80709F496C08091890200
:102BF0008260C330DC4509F492C0809189029091D3
:102C00008A020E94AF220E94C81B80E0DF91CF9110
:102C10000895809189028061C630ECE5DE0709F4F1
:102C20007EC0809189028860C730DC4508F477C097
:102C300080918902806273C0CC308CE5D80709F49A
:102C400089C058F4CA30ECE5DE0709F47FC008F407
:102C500077C0809189028E7F62C0CE308CE5D80724
:102C600009F47CC080918902CF30DC4508F485C02E
:102C7000809189028F7E53C0CB3FECE5DE0709F4DB
:102C800055C020F5C3318CE5D80709F473C078F43A
:102C9000C131ECE5DE0709F469C0C231DC4509F059
:102CA000ACCF0E94C81B809189028F7738C0C53194
:102CB0008CE5D80709F468C008F47CC080918A02CA
:102CC000CA3FDC4509F099CF816033C0CF3FFCE5B6
:102CD000DF0709F454C088F480918A028D7FCD3FCC
:102CE0009CE5D90731F180918A02CE3FDC4508F49A
:102CF00049C080918A028260E7CFC130FDE5DF07DD
:102D000009F461C008F44CC080E0C230DD4509F030
:102D100074CF0E942D2371CF8091890281608093AE
:102D200089026BCF809189028460F9CF80918A02F9
:102D3000826080938A0261CF809189028064EFCFA4
:102D40000E94C81B809189028068E9CF8091890226
:102D50008860EACF809189028D7FE1CF80918902DE
:102D6000877FDDCF809189028F7DD9CF80918902C5
:102D70008F7BD5CF80918902877F8B7FD0CF809149
:102D80008A028D7F8E7FD5CF8091890282FB992721
:102D900090F921E0922790FB82F990FB83F9BFCF55
:102DA00080918A02982F909591708E7F892B90FB4D
:102DB00081F9BFCF0E94C81B90918902892F97FB90
:102DC00087F98058ACCF81E0A4CF81E01FCF9093EA
:102DD0009401809393010895E0919301F0919401FF
:102DE000309721F00190F081E02D099480E0089562
:102DF000EF92FF920F931F93CF93DF93EC01E0913B
:102E00009301F0919401309709F446C080911C0120
:102E1000882341F08091890287FF04C088818983DB
:102E200085E088830280F381E02DCE0109958091B1
:102E3000330282FF31C080FF04C08FE796E00E941A
:102E4000590710E000E089E7E82E86E0F82E80912F
:102E5000330280FF0EC0FE01E00FF11F80811F9240
:102E60008F93FF92EF920E94F2070F900F900F90B6
:102E70000F900F5F1F4F0830110549F78091330203
:102E800080FF0AC087E796E0DF91CF911F910F91F5
:102E9000FF90EF900C945907DF91CF911F910F9104
:102EA000FF90EF90089520919101309192012817A1
:102EB000390771F09093920180939101E091930111
:102EC000F0919401309721F00680F781E02D09946C
:102ED000089520918F01309190012817390771F0E2
:102EE0009093900180938F01E0919301F091940170
:102EF000309721F00084F185E02D0994089585B77D
:102F0000806885BF85B7806885BF08950895089556
:102F10000C94861708950C948A170E947F170E94BC
:102F200087170C94881781E008950E945E240E9400
:102F3000D80B0E943E250E94F0120C948B17CF9361
:102F4000C82F8091330282FF1EC080FF04C088E931
:102F500096E00E9459078091330280FF0CC01F92B7
:102F6000CF9383E996E09F938F930E94F2070F908F
:102F70000F900F900F908091330280FF04C081E981
:102F800096E00E9459078C2FCF910C944B087F92AA
:102F90008F929F92AF92BF92CF92DF92EF92FF9269
:102FA0000F931F93CF93DF93CDB7DEB72A970FB65A
:102FB000F894DEBF0FBECDBF0E94400C0E94931755
:102FC000882309F46FC046E9A42E41E0B42E10E036
:102FD00000E0702E802F0E94CF0B6C01F5018190D4
:102FE00091905F018816990609F456C080913302CA
:102FF00081FD0E94910B80E0EE24E394F12C8C245F
:103000009D2494012E213F21232B09F43FC08E8360
:103010007F82CE20DF2081E0CD2809F480E0888700
:103020000E9467248160782F9A8789874E815F810B
:1030300068858A850E947718000F111FF801EA56EB
:10304000FE4F80819181E826F926F182E0820E947C
:10305000EC16909195018917B1F10E94EC168093BE
:1030600095012A960FB6F894DEBF0FBECDBFDF9153
:10307000CF911F910F91FF90EF90DF90CF90BF9075
:10308000AF909F908F907F900C949F178F5FEE0C66
:10309000FF1C8E3009F0B5CF0F5F1F4F05301105B3
:1030A00009F097CF8FEF89838A831B820E94672460
:1030B0008160782F9D838C8349815A816B818D81BA
:1030C0000E947718C4CF2A960FB6F894DEBF0FBEC1
:1030D000CDBFDF91CF911F910F91FF90EF90DF90C7
:1030E000CF90BF90AF909F908F907F900895CF9397
:1030F000DF93CDB7DEB72B970FB6F894DEBF0FBEC8
:10310000CDBF4F83588769877A878B871E821D8240
:1031100085E0FE013796DE01119601900D928A95A9
:10312000E1F749815A816B817C818D819E812B964B
:103130000FB6F894DEBF0FBECDBFDF91CF910C94D8
:103140008A1EFC01808191810C945521CF93C82F58
:10315000882309F49AC08CEF8C0F813A58F48C2F95
:103160000E942129811191C08C2F0E948321CF912F
:103170000C94F72180E28C0F883048F4C77081E00E
:1031800001C0880FCA95EAF70E94AB21F0CF8BE50A
:103190008C0F833068F481E890E0C53A31F083E821
:1031A00090E0C63A11F482E890E0CF910C94531766
:1031B00088E58C0F873108F068C082EE90E0C83A4D
:1031C00009F460C089EE90E0C93A09F45BC08AEE68
:1031D00090E0CA3A09F456C085EB90E0CB3A09F486
:1031E00051C086EB90E0CC3A09F44CC083EB90E000
:1031F000CB3B09F447C084EB90E0CC3B09F442C0E0
:1032000087EB90E0CD3AF1F18CEC90E0C03BD1F14E
:103210008DEC90E0CE3AB1F183E891E0CF3A91F1B4
:103220008AE891E0C13B71F182E991E0C23B51F142
:1032300084E991E0C33B31F181E292E0C43B11F1BA
:1032400083E292E0C53BF1F084E292E0C63BD1F02C
:1032500085E292E0C73BB1F086E292E0C83B91F094
:1032600087E292E0C93B71F08FE690E0CD3B51F0F0
:1032700080E790E0CE3B31F090E080E0CA3B11F473
:103280008AE292E0CF910C946917CF910895882338
:1032900029F19CEF980F913A20F40E948A210C9416
:1032A000F72190E2980F983050F4877091E001C0B8
:1032B000990F8A95EAF7892F0E94B121F0CF9BE5FB
:1032C000980F933020F490E080E00C945317885AC4
:1032D000873120F490E080E00C9469170895CF9333
:1032E000C82F0E94A618C93349F42FEF87EE93E048
:1032F000215080409040E1F700C000008C2FCF911A
:103300000C944719882321F00E94AB210C94F721DB
:103310000895882321F00E94B1210C94F72108958B
:10332000CF92DF92EF92FF920F931F93CF93DF9391
:103330006C01D62FC72FFC01158112951F700281D9
:1033400001110E94CA210E94A121E82E882371F058
:10335000002321F180E28D0F883000F182E00E948D
:1033600042220E94A12191E0E82EE926EC2FE2956D
:10337000EF70F0E0E254F64E0C94E730D019D0191B
:103380001D1A1D1AFD19FD19FD19FD196F1AFE1AD6
:103390000F1B0F1B741BFD19FD197D1BE12CE6CFC4
:1033A0001C2F1F70C07F11F01295107F0023A9F011
:1033B000112359F080E28D0F883010F0D11109C02F
:1033C000812F0E94AB210E94F7218D2F0E94A61809
:1033D00014C0812F0E94BC21F6CF8D2F0E94471967
:1033E000112359F080E28D0F883010F0D11121C0E7
:1033F000812F0E94B1210E94F721EE2009F484C19F
:103400000E949D2180FD80C1F60112820E949721B9
:103410000E941D20C6010E948D1B0E949721DF91F2
:10342000CF911F910F91FF90EF90DF90CF900C9470
:103430003E20812F0E94C221DECFFC2FFF70FF2E85
:10344000C07FC03219F0F29480EFF822DD2369F0DA
:10345000D13049F1002391F1112351F1F601858119
:1034600080FFB3CF8F70858323C0002381F01111BB
:1034700006C00E94DE218F290E948219BECF113022
:10348000C1F70E94DE218F290E94E421B6CF1111DD
:1034900006C00E94ED218F2D0E948919AECF1130F8
:1034A00009F4ABCFF6CF002329F0163008F0A5CFF2
:1034B0008F2DE2CF153008F0A0CFEDCF112359F3B7
:1034C000D93349F4FFEF27EE83E0F15020408040EC
:1034D000E1F700C000008D2F0E9447198ECF8C2F7E
:1034E000837009F045C0011135C04D2F42954695B6
:1034F0004770440F440F0D2F0F7010E030E020E0B4
:10350000042E04C0000F111F221F331F0A94D2F78C
:1035100060E070E0CB01D4FF0FC06FE070E080E0AE
:1035200090E004C0660F771F881F991F4A95D2F755
:103530006095709580959095602B712B822B932BC5
:10354000C695C695C370C23069F078F4C13039F0C1
:103550000E94CF1F0E94EC160E944B084ECF0E9483
:10356000BD1FF8CF0E94E11FF5CF0E94BB1FF2CF15
:103570008695002311F08C2F8170882359F34D2FED
:10358000429546954770440F440F0D2F0F7010E081
:1035900030E020E0042E04C0000F111F221F331F53
:1035A0000A94D2F760E070E0CB01D4FF0FC06FE067
:1035B00070E080E090E004C0660F771F881F991FBD
:1035C0004A95D2F76095709580959095602B712BF8
:1035D000822B932BC695C695C370C23049F058F420
:1035E000C13019F00E949420B5CF0E948220B2CF42
:1035F0000E94A620AFCF0E94F71FACCFCF70002350
:1036000039F08C2F0E941D208D2F0E948219A2CF8D
:103610008D2F0E9489198C2F0E943E209BCFD23F74
:1036200099F170F4D03FD9F0D13F39F1002309F47A
:1036300047C0112309F441C08D2F0E94A6188ACFDC
:10364000D33F39F1D43F91F7002369F1CF718C2F2B
:103650000E941D2063E08C2F0E942D227BCF00232F
:1036600041F0153008F076CF8C2F8F710E946120C9
:1036700071CF163008F06ECFF7CF8C2F8F710023EB
:1036800059F20E941D2066CF8C2F8F710023C9F341
:10369000C3CF002329F08C2F8F710E9408205ACFAE
:1036A0000E94032057CF81E00E944222123008F48A
:1036B00051CF82E00E9442224DCF8C2F8F71E1CFFB
:1036C000112379F0D93349F49FEFE7EEF3E09150FD
:1036D000E040F040E1F700C000008D2F0E94471944
:1036E00039CF8C2F8F7198CF4C2F4F706D2FC60113
:1036F0000E94D7080E94331F80CE4C2F4F706D2F31
:10370000C6010E94DA0879CEDF91CF911F910F9107
:10371000FF90EF90DF90CF9008950F931F93CF937A
:10372000DF93EC01988189812B813C81232B39F037
:103730008F3F19F481E09F3F19F080E001C081E0E4
:1037400080FD17C0CE010E946308882391F0688134
:1037500079818A810E945F218C010E94B8200E9499
:10376000BA1FB801CE01DF91CF911F910F910C9438
:103770009019DF91CF911F910F9108950E94CA2156
:103780000E94DB210C94F7210E9491210C94BE1B16
:103790000E94B9210C94C41BE92FE295EF70E2500E
:1037A000EE30E0F4F0E0E952F44E0C94E730E51B23
:1037B000E51BEE1BEE1BF01BEE1BEE1BEE1BE51BD1
:1037C000E51BF51BEE1BEE1BF51B803F19F020F4EB
:1037D000883E20F481E00895843FE1F380E008957D
:1037E000883EC0F3813FD1F7F5CF93FB882780F95E
:1037F00008950E9455210C94CC1BCF93DF9300D0E9
:1038000000D01F92CDB7DEB70F900F900F900F90A2
:103810000F90DF91CF910895CF93DF9300D000D028
:1038200000D0CDB7DEB726960FB6F894DEBF0FBE38
:10383000CDBFDF91CF9108951F93CF93DF93C091B8
:10384000A10116E08091A2018C1304C0DF91CF91F9
:103850001F910895D0E01C9FF0011D9FF00D1124D1
:10386000ED55FE4F40815181628173818481958144
:103870000E940C1C2196C770E5CF4091D301509156
:10388000D4016091D5017091D6018091D7019091BA
:10389000D8010C940C1C1F93CF93DF938091D80117
:1038A000807FD1F48091D5018823B1F08091A1016E
:1038B000D091A201B091D301C091D4014091D60121
:1038C0005091D701A1E0BF3F09F0A0E0BA01609597
:1038D000709516E0D81304C0DF91CF911F91089521
:1038E00021E04115510521F02A2FCF3F09F020E0BA
:1038F00090E020FD38C0189FF001199FF00D1124B1
:10390000ED55FE4F21812C132EC020812B132BC08F
:103910002281211128C0238134812417350700F129
:10392000241B350B283C3105F0F42091D8012F7071
:1039300020612093D80126E0289FF001299FF00DF7
:103940001124E855FE4F80818F708061808383ED64
:1039500091E00E948D1BDF91CF911F910C941C1C54
:10396000260F371FDFCF01968770B4CFAF92BF927B
:10397000CF92DF92EF92FF920F931F93CF93DF933B
:10398000CDB7DEB761970FB6F894DEBF0FBECDBFDF
:103990008C0185E0F801DE011D9601900D928A955B
:1039A000E1F7D8014C9111965C9111971296EC9029
:1039B0003091D3016091D4018091D6019091D701CB
:1039C00021E0009731F06F3F19F421E03F3F09F00B
:1039D00020E0B22FB170BB2E20FD80C1F801C38062
:1039E000D480A090D501AA2009F427C1C816D90611
:1039F000D0F1D601A81BB90BCD01FF24F394883C6C
:103A0000910508F0F12C8091D801982F907FFF202C
:103A100009F4CEC0911187C0FE2C651329C0341360
:103A200027C0E11025C08F7080618093D8010E946B
:103A30003D1C83ED91E00E948D1B8091D801F8011F
:103A400085838F2D61960FB6F894DEBF0FBECDBF74
:103A5000DF91CF911F910F91FF90EF90DF90CF906A
:103A6000BF90AF900895809590958C0D9D1DC5CF0A
:103A700081E0CD2831F05F3F19F481E04F3F09F03C
:103A800080E080FD24C081E08E25F82FF170DF2ECC
:103A900080FF3FC08091A1012091A20136E08213F6
:103AA00018C04D875E878D859E850E945521292FE0
:103AB00022952F70223008F1243030F59F7009F1E3
:103AC000D80115969C91907FE1F4FB2CBACF80E051
:103AD000DCCF90E0389FF001399FF00D1124ED55B7
:103AE000FE4F6181561306C06081461303C0628198
:103AF0006E110FC001968770D2CF9F7011F088238E
:103B000021F3805E883008F3C8010E948D1BBD2C14
:103B1000DCCFEE2009F495CF8091D80181608093AD
:103B2000D801F12C8ECF651314C0341312C0E110EC
:103B300010C0F8018583C8010E948D1B86E0F80142
:103B4000A3EDB1E001900D928A95E1F70E943D1C32
:103B500078CF4D875E878D859E850E94F91B8823CF
:103B600019F1EE2009F18091D801803270F0209196
:103B7000D3013091D40138872F831986DB86CA861A
:103B80008C87CE0107960E948D1B86E0F801A3ED7D
:103B9000B1E001900D928A95E1F70E944B1C0E94C2
:103BA0003D1CFF24F3944DCFC8010E948D1BF9CF1B
:103BB000911113C07C2DD98AC88A6E2D89890E94E3
:103BC000FD1B83ED91E00E948D1B86E0E3EDF1E0AB
:103BD000DF011D928A95E9F7B9CF651312C034133E
:103BE00010C0E1100EC0F8018583C8010E948D1B32
:103BF000E3EDF1E086E0DF011D928A95E9F7FA2C0A
:103C000020CF4D875E878D859E850E94F91B882376
:103C100059F2EE2049F28091D801803208F4B5CFF4
:103C20002091D3013091D4013A8329831B82DD8214
:103C3000CC828E83CE010196A6CFC816D90638F164
:103C4000F601E81BF90BCF01F12C883C910508F037
:103C50003DC0FE2CEE2009F4A7CF651326C0341317
:103C600024C08091D80180FD17C0982F907FA1F0CB
:103C7000D80115968C931597903F09F45CCF982F37
:103C8000907F905F8F70892B15968C9354CF809581
:103C900090958C0D9D1DD8CF86E0F801A3EDB1E085
:103CA00001900D928A95E1F7CCCE4D875E878D8588
:103CB0009E850E94F91B811168CF8091D801816097
:103CC0008093D801C8010E948D1BBBCE7C2DD98A60
:103CD000C88A6E2D89890E94FD1B77CFEE2009F4DA
:103CE00063CF4D875E878D859E850E94F91BF82ED8
:103CF000882309F459CF86E0F801A3EDB1E00190E3
:103D00000D928A95E1F783ED91E00E94A1180E943F
:103D10004B1C1CCF1F93CF93DF93CDB7DEB72C97EF
:103D20000FB6F894DEBF0FBECDBF4F8358876987AB
:103D30007A878B879C87CE0107960E94B61C8823C2
:103D400009F442C09F8188852A853B85232B39F061
:103D50008F3F19F481E09F3F19F080E001C081E0BE
:103D600080FD08C04F81588569857A858B859C8543
:103D70000E940C1C16E08091A1019091A20189176C
:103D800009F467C0819FC00111248D559E4F0E9488
:103D9000B61C882309F45DC0E091A1011E9FF001CB
:103DA0001124ED55FE4F40815181628173818481E0
:103DB00095810E940C1C8091A10190E00196877072
:103DC00099278093A101D7CF86E0FE013796DE01C7
:103DD000119601900D928A95E1F79F8188852A8539
:103DE0003B85232B39F08F3F19F481E09F3F19F079
:103DF00080E001C081E080FDBDCF2091A20130E0D4
:103E0000C9010196877099274091A10148171906A9
:103E100099F096E0929FD001939FB00D1124AD557B
:103E2000BE4FFE01319601900D929A95E1F7809375
:103E3000A2010E941C1C9ECF0E94C81B1092A201CE
:103E40001092A10186E0E3EDF1E0DF011D928A9579
:103E5000E9F72C960FB6F894DEBF0FBECDBFDF9109
:103E6000CF911F910895EF92FF920F931F93CF93DD
:103E7000DF938C01892B81F0F12CEE24E394E8018F
:103E80002196F8018491843770F4843008F05FC083
:103E90008130B1F08230A1F1DF91CF911F910F916C
:103EA000FF90EF900895853709F44CC008F43DC0A9
:103EB0009CE7980F903780F78F770E94471949C089
:103EC0000E5F1F4FFE01849190E2980F983060F4CE
:103ED0008770FE2D01C0FF0F8A95EAF78F2F0E9491
:103EE000CD210E94F72102C00E94A6188F2D81507B
:103EF00030F2EFE9FFE03197F1F700C00000F7CFB3
:103F00000E5F1F4FFE01849190E2980F983050F49D
:103F10008770FE2D01C0FF0F8A95EAF78F2F0E9450
:103F2000D321DFCF0E944719E1CF0E5F1F4FFE0163
:103F3000C491C150D8F28FE99FE00197F1F700C01A
:103F40000000F7CF0E5F1F4FFE01F490CFCF0E940D
:103F5000A6188E01CBCF08950C94AB1F0E94AC1F06
:103F600060930A0270930B0280930C0290930D02EF
:103F70000C94BE1B08950C94AE1F0F931F930091D9
:103F80000A0210910B0220910C0230910D02602B5D
:103F9000712B822B932B1F910F910C94AE1F0F93BB
:103FA0001F9300910A0210910B0220910C02309194
:103FB0000D0260237123822393231F910F910C9490
:103FC000AE1F0F931F9300910A0210910B022091D4
:103FD0000C0230910D0260277127822793271F91D1
:103FE0000F910C94AE1F0C94AB1F0C94F31F0E9406
:103FF000F51F609306027093070280930802909366
:1040000009020C94BE1B60E070E0CB010C94F71F1A
:104010000F931F9341E050E060E070E08A019B0144
:1040200004C0000F111F221F331F8A95D2F7C90148
:10403000B8011F910F910C94F71F0F931F9341E04C
:1040400050E060E070E004C0440F551F661F771F0A
:104050008A95D2F78091060290910702A0910802FA
:10406000B09109028A019B01082B192B2A2B3B2BAB
:10407000C901B8011F910F910C94F71F0F931F9363
:1040800041E050E060E070E004C0440F551F661F3F
:10409000771F8A95D2F7CB01BA016095709580950C
:1040A000909500910602109107022091080230912C
:1040B000090260237123822393231F910F910C9493
:1040C000F71F0F931F9341E050E060E070E004C0E1
:1040D000440F551F661F771F8A95D2F780910602FD
:1040E00090910702A0910802B09109028A019B01F8
:1040F000082719272A273B27C901B8011F910F91CB
:104100000C94F71F0F931F93009106021091070262
:104110002091080230910902602B712B822B932B86
:104120001F910F910C94F71F0F931F93009106029C
:104130001091070220910802309109026023712337
:10414000822393231F910F910C94F71F0F931F93BA
:104150000091060210910702209108023091090295
:1041600060277127822793271F910F910C94F71FC7
:1041700008952EE0929F800D1124982F977071E082
:1041800001C0770F9A95EAF786958695869525E082
:10419000829FC001112450E040E0A62FB0E0FC0156
:1041A000E40FF51FE752FE4F60819D01042E02C00F
:1041B000369527950A94E2F7217021952627272323
:1041C000262720834F5F5F4F4530510541F7089503
:1041D0002EE0929F800D1124982F977086958695DA
:1041E000869525E0829FA001112470E060E080E0C8
:1041F000FA01E60FF71FE752FE4F208130E0092E4B
:1042000002C0369527950A94E2F721703327062ECF
:1042100001C0220F0A94EAF7822B6F5F7F4F65304F
:10422000710531F70895BF92CF92DF92EF92FF921E
:104230000F931F93CF93DF938C01C0900602D09011
:104240000702E0900802F090090280910A02909122
:104250000B02A0910C02B0910D02C82AD92AEA2AB9
:10426000FB2ACFE1D0E0BC2ED701C6010C2E04C042
:10427000B695A795979587950A94D2F780FD0EC0BD
:10428000219788F7B12C8B2DDF91CF911F910F9142
:10429000FF90EF90DF90CF90BF900895B8018C2FE2
:1042A0000E94F708019761F3EECFCF93DF93EC0103
:1042B0000E941321BE01DF91CF910C94F7081F9348
:1042C000CF93DF93EB019091A001992331F0CB01C3
:1042D000DF91CF911F910C945521882379F0CB0168
:1042E0000E941321182F682FCE010E94B920BE0111
:1042F000812FDF91CF911F910C94F708CB010E9481
:10430000E820182FF4CF682F8091100190911101AF
:104310000C94B823682F80911001909111010C9496
:10432000C32380911001909111010C94CE238091B0
:104330000E02859585958595089580910E0287706A
:10434000089590910E02977081E009F480E008953D
:1043500080913202089590913202892B809332022B
:104360000895982F9095809132028923809332028C
:10437000089510923202089590913102892B809312
:1043800031020895982F909580913102892380936E
:104390003102089510923102089590913002892BD4
:1043A000809330020895982F909580913002892350
:1043B00080933002089510923002089580910F0288
:1043C000089508950C94E12190910F02981721F01F
:1043D00080930F020C94E221089580910F028823AC
:1043E00029F010920F0280E00C94E2210895E091F0
:1043F0001001F0911101809132028083E09110014F
:10440000F0911101808190913102892B8083E0919C
:104410001001F0911101808190913002892B8083ED
:1044200090910F02992381F0E0911001F091110118
:104430008081892B808380911001909111010E94CD
:10444000322381110E94ED21809110019091110180
:104450000C94F81608950C942A2298E0899F9001F4
:104460001124622B60930E020E941D2080910E0287
:104470008595859585950C942B2210920E0280E0EF
:104480000C942B2290910E028095892380930E022A
:10449000282F277071F4282F082E000C330B921749
:1044A000130639F08595859585950E943E200C94DC
:1044B0003D2208959093650180936401089582954B
:1044C00090E09C01220F331F220F331F2C7C959507
:1044D0008795959587958373282B30E0C901880FC0
:1044E000991F8A7A359527952575822B0895CF9344
:1044F000DF93D92F0E945F22C82F8D2F0E945F2249
:104500009C2FDF91CF91089590E080E00E940831C8
:1045100021E08C3E9E4F09F020E0822F089582E03A
:1045200090E00C94FA30682F82E090E00C940E3109
:1045300083E090E00C94FA30682F83E090E00C94D4
:104540000E31CF9384E090E00E94FA30C82F81E2D0
:1045500090E00E94FA30982F8C2FCF910895CF933E
:10456000C92F682F84E090E00E940E316C2F81E209
:1045700090E0CF910C940E31AB01BC018FE090E044
:104580000C942031AB01BC0183E190E00C9420310C
:1045900060E070E0CB010C94C22260E070E0CB01DF
:1045A0000E94BC220C94C8226CEE7EEF90E080E06A
:1045B0000E942C3160E082E090E00E940E3160E0C9
:1045C00083E090E00E940E3110920A0210920B02DA
:1045D00010920C0210920D0260E084E090E00E94C4
:1045E0000E3160E081E290E00E940E3160E085E0F3
:1045F00090E00E940E3160E086E090E00E940E3173
:104600006FEF87E090E00E940E3140E050E0BA0189
:1046100088E090E00E94203160E08DE090E00E9410
:104620000E3140E050E0BA0188E190E00E94203174
:1046300060E087E190E00E940E3140E050E0BA0176
:104640008CE190E00E94203160E080E290E00E94E6
:104650000E310C94CD220C94D422682F8EE090E081
:104660000C940E31FC01329680911C01882321F0BC
:10467000809189029EE187FF96E080E0915008F4E6
:10468000089521912223D1F38F5FF8CF9C01FC0183
:1046900032969FEF80E04191461751F09F3F19F409
:1046A000411101C0982F8F5F8630A9F79F3F09F411
:1046B0000895290F311D97FD3A95F90162830895F8
:1046C000FC01329608962191261303C0DF01119751
:1046D0001C92E817F907B9F70895E62FE695E695D5
:1046E000E695EE3170F4E80FF92FF11D677021E0C7
:1046F00030E001C0220F6A95EAF78281822B828323
:1047000008958091330280FF0CC01F926F9389EC53
:1047100096E09F938F930E94F2070F900F900F9057
:104720000F900895E62FE695E695E695EE3178F43C
:10473000E80FF92FF11D677021E030E001C0220F72
:104740006A95EAF720958281282322830895809133
:10475000330280FF0CC01F926F938BEA96E09F9309
:104760008F930E94F2070F900F900F900F90089573
:1047700020911C01222329F02091890227FD0C940D
:104780006D230C94462320911C01222329F02091B3
:10479000890227FD0C9492230C946023FC0132962D
:1047A00080911C01882351F08091890287FF06C007
:1047B0008EE1DF011D928A95E9F7089586E0F9CF31
:1047C000089508950C94E1230E94E22380918F02C2
:1047D000843049F11092340288E190E020E40FB671
:1047E000F894A895809360000FBE2093600080E04D
:1047F0000E944B080E94E22383B7817F846083BFBD
:1048000083B7816083BF7894889583B78E7F83BF99
:104810000FB6F894A895809160008861809360003D
:10482000109260000FBE08950895CF930E94E02378
:104830000E94400C0E941424C0E08C2F0E94CF0BD9
:10484000892B31F4CF5FC530C1F780E0CF91089557
:1048500081E0FCCF08950C942A240E94C81B0E947A
:10486000EC160E944B080C942B241F920F920FB64B
:104870000F9211248F939F93AF93BF938091340233
:10488000811113C08091850290918602A0918702C8
:10489000B09188024196A11DB11D8093850290932D
:1048A0008602A0938702B0938802BF91AF919F9137
:1048B0008F910F900FBE0F901F90189582E084BDCE
:1048C00093E095BD9AEF97BD80936E0008952FB742
:1048D000F8948091850290918602A0918702B09110
:1048E00088022FBF08952FB7F894609185027091C8
:1048F000860280918702909188022FBF0895CF92FF
:10490000DF92EF92FF920F931F932FB7F89440918D
:1049100085025091860260918702709188022FBFB4
:104920006A017B01EE24FF248C0130E020E0C016F8
:10493000D106E206F30650F0481B590BCA011F913D
:104940000F91FF90EF90DF90CF9008954150510963
:10495000F3CF78941F920F920FB60F9211248F937A
:104960009F93AF93BF938091850290918602A0910F
:104970008702B09188020196A11DB11D8093850226
:1049800090938602A0938702B0938802BF91AF9163
:104990009F918F910F900FBE0F901F90189581E0FF
:1049A0008093E00080E28093D8001092C9008FE1EC
:1049B0009EE40197F1F700C0000087E090EBDC0176
:1049C0008093980290939902A0939A02B0939B02CD
:1049D00088E19CE00FB6F894A895809360000FBE24
:1049E00090936000FFCFAF92BF92CF92DF92EF9291
:1049F000FF920F931F93CF93C0E0CC24C394D12C8C
:104A0000E82EF12C8C2F0E94CF0B5C0110E000E00F
:104A1000C601002E02C0880F991F0A94E2F78A216E
:104A20009B21892B99F40F5F1F4F0E30110581F7E1
:104A3000CF5FC53039F780E0CF911F910F91FF9084
:104A4000EF90DF90CF90BF90AF900895602F7C2FB4
:104A500080E00E94DB08E816F90629F781E0ECCF38
:104A6000CF93C82F8CE20E94F324882321F08C2F4F
:104A7000CF910C94F32480E0CF910895CF930E94BE
:104A80008422811102C00E942B238EEE96E00E94A8
:104A90005907C5E6C15009F0E7C087EE96E00E94CD
:104AA000590789E20E94302581110AC18AE20E94D9
:104AB000302581110E942B2385E00E943025811131
:104AC0000E94CF240E948F228093330287E00E94AD
:104AD0003025882371F08BE10E943025882309F46A
:104AE000CCC090913302892F8D7F91FF826080939B
:104AF0003302809133020E9493220E94A12290935C
:104B00008A028093890280EE0E943025882341F03A
:104B100090918902892F8E7F90FF81608093890216
:104B200089E30E943025882341F090918902892FE2
:104B30008D7F91FF82608093890282EE0E943025F2
:104B4000882341F090918902892F8B7F92FF8460A6
:104B50008093890286EE0E943025882341F090914F
:104B60008902892F877F93FF88608093890283EE73
:104B70000E943025882341F090918902892F8F7EF1
:104B800094FF80618093890285E30E943025882309
:104B900041F090918902892F8F7D95FF80628093EB
:104BA000890281E30E943025882341F09091890297
:104BB000892F8F7B96FF80648093890281E10E9418
:104BC0003025882341F090918902892F97FB87F93E
:104BD0008058809389028091890290918A020E9474
:104BE000AF2287E20E943025C82F8EE10E94302537
:104BF0008111C2608FE10E9430258111C46080E282
:104C00000E9430258111C86081E20E943025811107
:104C1000C06182E20E9430258111C06283E20E945D
:104C200030258111C06484E20E943025882309F474
:104C300041C0C0688C2F0E949C226C2F70E090E0D5
:104C400080E00E94BB1F8FE00E943025882319F06E
:104C500081E00E942D2385E10E943025882381F187
:104C600080E0CF910C942D230E94400C8FE39CE9AF
:104C70000197F1F700C000000DCF8EE00E943025B3
:104C8000882339F090913302892F8B7F92FF8460C3
:104C90002ECF80E10E94302590913302882329F0A5
:104CA000892F877F93FF886022CF892F8E7F90FF87
:104CB00081601DCFC111BECF0E949822682FBECF48
:104CC000CF910895CF93C82F1F928F9389E097E0DB
:104CD0009F938F930E94F20761E070E080E090E084
:104CE00004C0660F771F881F991FCA95D2F70E94CC
:104CF000BB1F0F900F900F900F90CF910C94C81B7B
:104D0000CF93DF93EBEFE80FEF3308F090C2F0E0C2
:104D1000E457F94D0C94E73043282F285528CB262B
:104D2000172917292A28172917298228172992288D
:104D3000FD281729172917291729B92817291729ED
:104D4000A22817296D28172917291529152915298A
:104D50001529152915291529152915290F29172967
:104D6000432823281729172917291729172917290D
:104D700017291729172917290F29172917292A2829
:104D8000172913291329132913291329132913293F
:104D9000132913290F2987E89CE00E94590783EC07
:104DA0009BE00E9459070E9498221F928F9380ECEB
:104DB0009BE09F938F930E94F2078EEB9BE00E94F3
:104DC00059070E948F22C82F8BEA9BE00E94590747
:104DD0001F92CF9386EA9BE09F938F930E94F207E6
:104DE00084EA9BE00E9459078AE99BE00E945907E8
:104DF0008C2F81701F928F9387E99BE09F938F93F5
:104E00000E94F20785E99BE00E9459078BE89BE02E
:104E10000E945907C1FB882780F91F928F9388E869
:104E20009BE09F938F930E94F20786E89BE00E948D
:104E300059078AE79BE00E945907C2FB882780F93F
:104E40001F928F9387E79BE09F938F930E94F207B7
:104E500085E79BE00E9459078CE69BE00E9459077A
:104E6000C3FBCC27C0F91F92CF9389E69BE09F93A9
:104E70008F930E94F20787E69BE00E9459070E94E9
:104E8000A122EC0183E59BE00E945907DF93CF93B9
:104E90008EE49BE09F938F930E94F2078CE49BE04B
:104EA0000E94590783E39BE00E9459078C2F817071
:104EB0001F928F9380E39BE09F938F930E94F20752
:104EC0008DB79EB780960FB6F8949EBF0FBE8DBF6C
:104ED0008EE29BE00E94590787E19BE00E94590700
:104EE000C1FB882780F91F928F9384E19BE09F93F9
:104EF0008F930E94F20782E19BE00E94590780E0B5
:104F00009BE00E9459078D2F81701F928F938DEF28
:104F10009AE09F938F930E94F2078BEF9AE00E9492
:104F2000590789EE9AE00E945907D695D1701F92D1
:104F3000DF9386EE9AE09F938F930E94F20784EEB0
:104F40009AE00E94590782ED9AE00E945907C2FB3D
:104F5000882780F91F928F938FEC9AE09F938F930D
:104F60000E94F2078DEC9AE00E9459078BEB9AE0C1
:104F70000E945907C3FB882780F91F928F9388EB03
:104F80009AE09F938F930E94F20786EB9AE00E942B
:104F900059078CEA9AE00E945907C4FB882780F9D8
:104FA0001F928F9389EA9AE09F938F930E94F20752
:104FB00087EA9AE00E94590785E99AE00E9459071A
:104FC000C5FB882780F91F928F9382E99AE09F930F
:104FD0008F930E94F20780E99AE00E94590784E7C4
:104FE0009AE00E945907C6FB882780F91F928F9389
:104FF00081E79AE09F938F930E94F2078DB79EB747
:1050000080960FB6F8949EBF0FBE8DBF8FE69AE0D4
:105010000E94590787E69AE00E945907C7FBCC27F0
:10502000C0F91F92CF9384E69AE09F938F930E94DA
:10503000F20782E69AE00E9459070F900F900F90B6
:105040000F9081E01DC086E79CE00E9459070E94F6
:105050002B23F7CF80EB98E00E945907F2CF809185
:105060003302817F8E7F8093330285E998E00E942E
:10507000590782E79CE00E94590781E0809335023E
:10508000DF91CF9108950E94C81B86E59CE00E94A5
:1050900059079FEF23ED80E3915020408040E1F7D6
:1050A00000C000000E94CF24CCCF90913302892F02
:1050B0008E7F90FF81608093330280FF03C08AE47B
:1050C0009CE0CACF8DE39CE00E9459078091330297
:1050D000897F877F80933302B4CF90913302892FE9
:1050E0008D7F91FF82608093330281FF08C080E34F
:1050F0009CE00E945907809133028160EBCF82E2ED
:105100009CE0AACF90913302892F8B7F92FF84601D
:105110008093330282FF03C083E19CE0EACF83E007
:105120009CE09ACF90913302892F877F93FF88600C
:105130008093330283FF03C087EF9BE0DACF8AEED0
:105140009BE08ACF86E898E00E94590782E698E0C3
:105150000E94590781E298E00E9459078DEE97E07E
:105160000E9459078AEB97E00E9459078FE897E061
:1051700073CF81E897E00E9459070E94EC161F92B6
:105180008F9387E697E09F938F930E94F207809119
:105190001C011F928F9380E597E09F938F930E944D
:1051A000F20780915A021F928F938DE397E09F93AD
:1051B0008F930E94F2078091890287FB882780F9EC
:1051C0001F928F9385E297E09F938F930E94F2073F
:1051D0000E9473249F938F937F936F938EE097E049
:1051E0009F938F930E94F2078DB79EB746960FB696
:1051F000F8949EBF0FBE8DBF24CF0E94C81B909114
:105200008902892F97FB87F980588093890287FF4D
:1052100003C080EE9BE020CF85ED9BE01DCF80E0BA
:105220000E9462260ECF8953FBCF8D51F9CF83EDBB
:105230009BE00E94590780E023CF80E008950C9402
:105240001D29CF93C82F80913502882331F08130FA
:1052500099F01092350280E00DC00E94A8218232A0
:10526000D1F78C2F0E941D29811119C08C2F0E940B
:1052700080268170CF9108950E94A821823289F3FF
:105280008C2F0E941F29811119C0C431C9F050F41C
:10529000CB3061F083E097E00E94590713C081E0B2
:1052A00090E0E7CFC93261F0C833A1F785E998E013
:1052B0000E94590785E097E00E94590781E0D9CF05
:1052C0001092350280E0D5CF80915902089508955B
:1052D00008959FB7F894109238029FBF90918F0263
:1052E000943009F049C02091E9002F709091EC00B2
:1052F00090FD30C090E0922B23E02093E9002091B4
:10530000EB0020FF36C02091EE0027FF32C0209135
:105310003602222321F02091E80025FF2AC01092B6
:10532000360226E03091E80035FF16C08093F10088
:105330008091E80085FD29C08091E80080FFFCCFC6
:105340008091E8008E778093E8009F709093E90049
:1053500080E0089590E8CFCF30918F02343049F447
:105360003091EB0035FD05C0215041F481E0809380
:1053700036029F709093E9008FEF0895EFE9FFE008
:105380003197F1F700C00000CDCF8FB7F89421E03E
:10539000209338028FBFD9CFCF93DF93EC010E94C7
:1053A000F72B823011F08430B9F580911C018823ED
:1053B000B1F18091890287FF32C060E282E0809380
:1053C000E9008FEF9091E800815095FD06C095EDC2
:1053D0009A95F1F700008111F5CF8091E80085FFE3
:1053E0001BC080911C0170E050E040E0811104C0BE
:1053F00050E040E068E070E0CE010E94142C809103
:10540000E8008E778093E80080E2FE01A9E3B2E035
:1054100001900D928A95E1F7DF91CF91089568E0B0
:1054200081E0CDCF089587EB9CE00E9459078091E1
:105430008E02811109C00E94A42D0E94012E80912C
:10544000E20084608093E200089583EB9CE00E9478
:10545000590710928E0208958FEA9CE00C94590728
:105460008BEA9CE00C94590787EA9CE00E9459075C
:105470000C942D24209137022F5F822F62E30E942B
:10548000A530992319F0209337020895109237021E
:10549000809138028823E9F080918F028430B9F43A
:1054A0009091E9009F708091EC0080FD13C080E036
:1054B000892B93E09093E9009091EB0090FF04C05A
:1054C0009091EE0097FD0AC08F708093E9001092D2
:1054D0003802089580E8ECCF1092F1009091E80036
:1054E00095FDFACF9091E80090FFEECF9091E80003
:1054F0009E779093E800E8CF42E061EC81E00E9463
:10550000222D42E261EC82E00E94222D42E261EC17
:1055100083E00C94222D80919102833009F462C0C3
:1055200030F48130D9F1823009F49EC008958A3078
:1055300009F48AC08B3009F470C0893009F051C079
:1055400080919002813209F04CC080919402909138
:105550009502029708F045C08091E800877F80930C
:10556000E8008091E80082FF38C08091F3009091BC
:10557000F200892798278927029729F48091F10062
:105580008B7F813021F48091F100809359028091CA
:10559000E8008B778093E8000C94562D8091900260
:1055A000813AF9F48091E800877F8093E800809148
:1055B000940290919502892B61F460E289E392E074
:1055C00070E00E94632C8091E8008B778093E80064
:1055D000089560E090E080E0F3CF80918F02811128
:1055E000C0CF089580919002813AD9F780919402BA
:1055F00090919502892BA9F78091E800877F80938D
:10560000E8008091E80080FFFCCF80911C0180932E
:10561000F1008091E8008E77BDCF809190028132B9
:1056200001F78091940290919502892BD1F6809197
:10563000E800877F8093E8000E94562D80919202B7
:1056400080931C010C94C81B80919002813249F612
:105650008091E800877F8093E8000E94562D80911A
:10566000930280935A02089580919002813A09F042
:10567000B8CF8091E800877F8093E8008091E800B0
:1056800080FFFCCF80915A02C2CF84B7877F84BF4E
:105690000FB6F894A89580916000886180936000AF
:1056A000109260000FBE80E890E00FB6F8948093EF
:1056B0006100909361000FBE0E948D170E94A42D7F
:1056C0000E94012E8091E20084608093E20089E6CE
:1056D00099E20E945A2278940E9489300E9495177C
:1056E00082E191E00E94E71686E99CE00E9459075A
:1056F00080918F02853029F00E94C7170E949F1366
:10570000F7CF82E99CE00E9459070E94E423809130
:105710008D02882369F30E941524882349F30E948F
:10572000FE2BE6CF0C94942B292F33272330310501
:1057300079F158F421303105F1F02230310519F1B9
:1057400090E080E030E020E01AC021323105C9F15C
:1057500022323105A9F76330710590F7FB01EE0F96
:10576000FF1FE85AFE4F208131816B5A7E4FFB01AB
:10577000808190E004C082E190E028E53DE0FA01FC
:105780003183208308958BE590E02DEF3CE0F7CF47
:1057900099278130910579F040F08230910571F0C0
:1057A000039771F6EBEBFCE002C0E9EFFCE08491BB
:1057B00090E09F01E4CFEBEDFCE0F9CFE1ECFCE001
:1057C000F6CF6330710508F0BBCF660F771FFB0182
:1057D000E25AFE4F2081318189E090E0D0CF809164
:1057E0008F02843011F081E0089582E00895809165
:1057F0005B02811102C00C94EF2B089580E189BDFA
:1058000082E189BD09B400FEFDCF8091D8008F7D73
:105810008093D8008091E00082608093E0008091C6
:10582000E00081FDFCCF0895AF92BF92CF92DF924E
:10583000FF920F931F93CF93DF936C01EB018A01CB
:105840000E94752DF82E811123C00115110539F024
:10585000F80180819181C81BD90BC80ED91EB12CCB
:10586000A12C2097A9F08091E80085FD22C08091AD
:10587000E8008E778093E80001151105A1F0F8018A
:1058800080819181A80EB91EB182A08285E0F82E98
:105890008F2DDF91CF911F910F91FF90DF90CF90CF
:1058A000BF90AF9008950E94752D8823D1F2F82EF5
:1058B000EFCFF60181916F018093F1002197FFEF07
:1058C000AF1ABF0ACECFFC01809196029091970249
:1058D00086179707A0F06115710529F49091E800EB
:1058E0009E779093E80090E06115710551F4911155
:1058F00008C08091E80082FF35C080E00895BC01B7
:10590000F2CF80918F028823C9F18530C9F180914F
:10591000E80083FD31C08091E80082FDEACF8091EC
:10592000E80080FFE1CF2091F3008091F200322F58
:10593000282F6115710519F02830310558F091E0D4
:105940002830310509F090E02091E8002E7720936F
:10595000E800CACF81918093F100615071092F5FF7
:105960003F4FE7CF80918F02882341F0853041F08F
:105970008091E80083FFBDCF81E0089582E0089523
:1059800083E00895FC01809196029091970286171A
:105990009707A0F06115710529F48091E8008E77D2
:1059A0008093E80090E06115710551F4911108C0F1
:1059B0008091E80082FF36C080E00895BC01F2CFFC
:1059C00080918F028823D1F18530D1F18091E80058
:1059D00083FD32C08091E80082FDEACF8091E8002B
:1059E00080FFE1CF2091F3008091F200322F282F29
:1059F0006115710519F02830310558F091E0283013
:105A0000310509F090E08091E8008E778093E800FE
:105A1000CACF84918093F1003196615071092F5F54
:105A20003F4FE6CF80918F02882341F0853041F0CF
:105A30008091E80083FFBCCF81E0089582E0089563
:105A400083E00895982F973028F08F708093E900B5
:105A500081E008959093E900242F762F50E0981765
:105A600031F07091EC002091ED005091F00021FD9B
:105A700002C09F5FE8CF3091EB003E7F3093EB0098
:105A80003091ED003D7F3093ED003091EB003160BF
:105A90003093EB007093EC002093ED005093F000F6
:105AA0002091EE0027FDE5CF80E0089580919002DF
:105AB00087FF13C08091E80082FF06C08091E80054
:105AC0008B778093E80004C080918F028111F2CF20
:105AD000089580918F028823D9F38091E80080FF98
